{
  "_format": "hh-sol-artifact-1",
  "contractName": "Voting",
  "sourceName": "contracts/Voting.sol",
  "abi": [
    {
      "inputs": [
        {
          "internalType": "string[]",
          "name": "candidatesList",
          "type": "string[]"
        }
      ],
      "stateMutability": "nonpayable",
      "type": "constructor"
    },
    {
      "inputs": [
        {
          "internalType": "string",
          "name": "candidate",
          "type": "string"
        }
      ],
      "name": "addNewCandidate",
      "outputs": [],
      "stateMutability": "nonpayable",
      "type": "function"
    },
    {
      "inputs": [
        {
          "internalType": "uint256",
          "name": "",
          "type": "uint256"
        }
      ],
      "name": "candidates",
      "outputs": [
        {
          "internalType": "string",
          "name": "",
          "type": "string"
        }
      ],
      "stateMutability": "view",
      "type": "function"
    },
    {
      "inputs": [],
      "name": "getCandidateList",
      "outputs": [
        {
          "internalType": "string[]",
          "name": "",
          "type": "string[]"
        }
      ],
      "stateMutability": "view",
      "type": "function"
    },
    {
      "inputs": [
        {
          "internalType": "string",
          "name": "candidate",
          "type": "string"
        }
      ],
      "name": "getVoteCount",
      "outputs": [
        {
          "internalType": "uint256",
          "name": "",
          "type": "uint256"
        }
      ],
      "stateMutability": "view",
      "type": "function"
    },
    {
      "inputs": [
        {
          "internalType": "string",
          "name": "candidate",
          "type": "string"
        }
      ],
      "name": "isValidCandidate",
      "outputs": [
        {
          "internalType": "bool",
          "name": "",
          "type": "bool"
        }
      ],
      "stateMutability": "view",
      "type": "function"
    },
    {
      "inputs": [
        {
          "internalType": "string",
          "name": "candidate",
          "type": "string"
        }
      ],
      "name": "vote",
      "outputs": [],
      "stateMutability": "nonpayable",
      "type": "function"
    },
    {
      "inputs": [
        {
          "internalType": "string",
          "name": "",
          "type": "string"
        }
      ],
      "name": "votes",
      "outputs": [
        {
          "internalType": "uint256",
          "name": "",
          "type": "uint256"
        }
      ],
      "stateMutability": "view",
      "type": "function"
    }
  ],
  "bytecode": "0x60806040523480156200001157600080fd5b506040516200119a3803806200119a8339818101604052810190620000379190620002fc565b60005b81518110156200014057600082828151811062000080577f4e487b7100000000000000000000000000000000000000000000000000000000600052603260045260246000fd5b6020026020010151908060018154018082558091505060019003906000526020600020016000909190919091509080519060200190620000c292919062000148565b506000600183838151811062000101577f4e487b7100000000000000000000000000000000000000000000000000000000600052603260045260246000fd5b602002602001015160405162000118919062000378565b90815260200160405180910390208190555080806200013790620004b3565b9150506200003a565b50506200058e565b82805462000156906200047d565b90600052602060002090601f0160209004810192826200017a5760008555620001c6565b82601f106200019557805160ff1916838001178555620001c6565b82800160010185558215620001c6579182015b82811115620001c5578251825591602001919060010190620001a8565b5b509050620001d59190620001d9565b5090565b5b80821115620001f4576000816000905550600101620001da565b5090565b60006200020f6200020984620003c5565b62000391565b9050808382526020820190508260005b85811015620002535781518501620002388882620002cf565b8452602084019350602083019250506001810190506200021f565b5050509392505050565b6000620002746200026e84620003f4565b62000391565b9050828152602081018484840111156200028d57600080fd5b6200029a84828562000447565b509392505050565b600082601f830112620002b457600080fd5b8151620002c6848260208601620001f8565b91505092915050565b600082601f830112620002e157600080fd5b8151620002f38482602086016200025d565b91505092915050565b6000602082840312156200030f57600080fd5b600082015167ffffffffffffffff8111156200032a57600080fd5b6200033884828501620002a2565b91505092915050565b60006200034e8262000427565b6200035a818562000432565b93506200036c81856020860162000447565b80840191505092915050565b600062000386828462000341565b915081905092915050565b6000604051905081810181811067ffffffffffffffff82111715620003bb57620003ba6200055f565b5b8060405250919050565b600067ffffffffffffffff821115620003e357620003e26200055f565b5b602082029050602081019050919050565b600067ffffffffffffffff8211156200041257620004116200055f565b5b601f19601f8301169050602081019050919050565b600081519050919050565b600081905092915050565b6000819050919050565b60005b83811015620004675780820151818401526020810190506200044a565b8381111562000477576000848401525b50505050565b600060028204905060018216806200049657607f821691505b60208210811415620004ad57620004ac62000530565b5b50919050565b6000620004c0826200043d565b91507fffffffffffffffffffffffffffffffffffffffffffffffffffffffffffffffff821415620004f657620004f562000501565b5b600182019050919050565b7f4e487b7100000000000000000000000000000000000000000000000000000000600052601160045260246000fd5b7f4e487b7100000000000000000000000000000000000000000000000000000000600052602260045260246000fd5b7f4e487b7100000000000000000000000000000000000000000000000000000000600052604160045260246000fd5b610bfc806200059e6000396000f3fe608060405234801561001057600080fd5b506004361061007d5760003560e01c806351b9887d1161005b57806351b9887d146100fe578063b99ef1fa1461012e578063fc36e15b1461015e578063fdbc40061461017a5761007d565b8063069953a7146100825780632d307d60146100b25780633477ee2e146100ce575b600080fd5b61009c60048036038101906100979190610626565b610198565b6040516100a991906108e6565b60405180910390f35b6100cc60048036038101906100c79190610626565b6101d2565b005b6100e860048036038101906100e39190610667565b610235565b6040516100f591906108c4565b60405180910390f35b61011860048036038101906101139190610626565b6102e1565b60405161012591906108a9565b60405180910390f35b61014860048036038101906101439190610626565b6103b5565b60405161015591906108e6565b60405180910390f35b61017860048036038101906101739190610626565b6103e3565b005b61018261042d565b60405161018f9190610887565b60405180910390f35b60006101a3826102e1565b6101ac57600080fd5b6001826040516101bc9190610859565b9081526020016040518091039020549050919050565b60008190806001815401808255809150506001900390600052602060002001600090919091909150908051906020019061020d929190610506565b5060006001826040516102209190610859565b90815260200160405180910390208190555050565b6000818154811061024557600080fd5b90600052602060002001600091509050805461026090610a96565b80601f016020809104026020016040519081016040528092919081815260200182805461028c90610a96565b80156102d95780601f106102ae576101008083540402835291602001916102d9565b820191906000526020600020905b8154815290600101906020018083116102bc57829003601f168201915b505050505081565b600080600090505b6000805490508110156103aa57826040516020016103079190610859565b6040516020818303038152906040528051906020012060008281548110610357577f4e487b7100000000000000000000000000000000000000000000000000000000600052603260045260246000fd5b906000526020600020016040516020016103719190610870565b6040516020818303038152906040528051906020012014156103975760019150506103b0565b80806103a290610ac8565b9150506102e9565b50600090505b919050565b6001818051602081018201805184825260208301602085012081835280955050505050506000915090505481565b6103ec816102e1565b6103f557600080fd5b600180826040516104069190610859565b9081526020016040518091039020600082825461042391906109e8565b9250508190555050565b60606000805480602002602001604051908101604052809291908181526020016000905b828210156104fd57838290600052602060002001805461047090610a96565b80601f016020809104026020016040519081016040528092919081815260200182805461049c90610a96565b80156104e95780601f106104be576101008083540402835291602001916104e9565b820191906000526020600020905b8154815290600101906020018083116104cc57829003601f168201915b505050505081526020019060010190610451565b50505050905090565b82805461051290610a96565b90600052602060002090601f016020900481019282610534576000855561057b565b82601f1061054d57805160ff191683800117855561057b565b8280016001018555821561057b579182015b8281111561057a57825182559160200191906001019061055f565b5b509050610588919061058c565b5090565b5b808211156105a557600081600090555060010161058d565b5090565b60006105bc6105b784610932565b610901565b9050828152602081018484840111156105d457600080fd5b6105df848285610a54565b509392505050565b600082601f8301126105f857600080fd5b81356106088482602086016105a9565b91505092915050565b60008135905061062081610baf565b92915050565b60006020828403121561063857600080fd5b600082013567ffffffffffffffff81111561065257600080fd5b61065e848285016105e7565b91505092915050565b60006020828403121561067957600080fd5b600061068784828501610611565b91505092915050565b600061069c8383610728565b905092915050565b60006106af82610987565b6106b981856109aa565b9350836020820285016106cb85610962565b8060005b8581101561070757848403895281516106e88582610690565b94506106f38361099d565b925060208a019950506001810190506106cf565b50829750879550505050505092915050565b61072281610a3e565b82525050565b600061073382610992565b61073d81856109bb565b935061074d818560208601610a63565b61075681610b9e565b840191505092915050565b600061076c82610992565b61077681856109cc565b9350610786818560208601610a63565b61078f81610b9e565b840191505092915050565b60006107a582610992565b6107af81856109dd565b93506107bf818560208601610a63565b80840191505092915050565b600081546107d881610a96565b6107e281866109dd565b945060018216600081146107fd576001811461080e57610841565b60ff19831686528186019350610841565b61081785610972565b60005b838110156108395781548189015260018201915060208101905061081a565b838801955050505b50505092915050565b61085381610a4a565b82525050565b6000610865828461079a565b915081905092915050565b600061087c82846107cb565b915081905092915050565b600060208201905081810360008301526108a181846106a4565b905092915050565b60006020820190506108be6000830184610719565b92915050565b600060208201905081810360008301526108de8184610761565b905092915050565b60006020820190506108fb600083018461084a565b92915050565b6000604051905081810181811067ffffffffffffffff8211171561092857610927610b6f565b5b8060405250919050565b600067ffffffffffffffff82111561094d5761094c610b6f565b5b601f19601f8301169050602081019050919050565b6000819050602082019050919050565b60008190508160005260206000209050919050565b600081519050919050565b600081519050919050565b6000602082019050919050565b600082825260208201905092915050565b600082825260208201905092915050565b600082825260208201905092915050565b600081905092915050565b60006109f382610a4a565b91506109fe83610a4a565b9250827fffffffffffffffffffffffffffffffffffffffffffffffffffffffffffffffff03821115610a3357610a32610b11565b5b828201905092915050565b60008115159050919050565b6000819050919050565b82818337600083830152505050565b60005b83811015610a81578082015181840152602081019050610a66565b83811115610a90576000848401525b50505050565b60006002820490506001821680610aae57607f821691505b60208210811415610ac257610ac1610b40565b5b50919050565b6000610ad382610a4a565b91507fffffffffffffffffffffffffffffffffffffffffffffffffffffffffffffffff821415610b0657610b05610b11565b5b600182019050919050565b7f4e487b7100000000000000000000000000000000000000000000000000000000600052601160045260246000fd5b7f4e487b7100000000000000000000000000000000000000000000000000000000600052602260045260246000fd5b7f4e487b7100000000000000000000000000000000000000000000000000000000600052604160045260246000fd5b6000601f19601f8301169050919050565b610bb881610a4a565b8114610bc357600080fd5b5056fea2646970667358221220592006af6deddc7e0dac08698b407375b61d74ab527b59633503b556f217b17164736f6c63430008000033",
  "linkReferences": {},
  "deployedLinkReferences": {}
}