{
  "_format": "hh-sol-artifact-1",
  "contractName": "Voting",
  "sourceName": "contracts/Voting.sol",
  "abi": [
    {
      "inputs": [],
      "stateMutability": "nonpayable",
      "type": "constructor"
    },
    {
      "inputs": [
        {
          "internalType": "uint256",
          "name": "",
          "type": "uint256"
        }
      ],
      "name": "ballots",
      "outputs": [
        {
          "internalType": "address",
          "name": "owner",
          "type": "address"
        },
        {
          "internalType": "string",
          "name": "name",
          "type": "string"
        },
        {
          "internalType": "uint256",
          "name": "startTime",
          "type": "uint256"
        },
        {
          "internalType": "uint256",
          "name": "endTime",
          "type": "uint256"
        }
      ],
      "stateMutability": "view",
      "type": "function"
    },
    {
      "inputs": [
        {
          "internalType": "string",
          "name": "name",
          "type": "string"
        },
        {
          "internalType": "uint256",
          "name": "startTime",
          "type": "uint256"
        },
        {
          "internalType": "uint256",
          "name": "endTime",
          "type": "uint256"
        },
        {
          "internalType": "string[]",
          "name": "candidatesList",
          "type": "string[]"
        },
        {
          "internalType": "address[]",
          "name": "votersList",
          "type": "address[]"
        }
      ],
      "name": "createBallot",
      "outputs": [],
      "stateMutability": "nonpayable",
      "type": "function"
    },
    {
      "inputs": [],
      "name": "getBallotCount",
      "outputs": [
        {
          "internalType": "uint256",
          "name": "",
          "type": "uint256"
        }
      ],
      "stateMutability": "view",
      "type": "function"
    },
    {
      "inputs": [],
      "name": "getBallots",
      "outputs": [
        {
          "internalType": "string[]",
          "name": "",
          "type": "string[]"
        }
      ],
      "stateMutability": "view",
      "type": "function"
    },
    {
      "inputs": [
        {
          "internalType": "uint256",
          "name": "ballotIndex",
          "type": "uint256"
        }
      ],
      "name": "getCandidateList",
      "outputs": [
        {
          "internalType": "string[]",
          "name": "",
          "type": "string[]"
        }
      ],
      "stateMutability": "view",
      "type": "function"
    },
    {
      "inputs": [
        {
          "internalType": "string",
          "name": "ballotName",
          "type": "string"
        },
        {
          "internalType": "string",
          "name": "candidate",
          "type": "string"
        }
      ],
      "name": "getVoteCount",
      "outputs": [
        {
          "internalType": "uint256",
          "name": "voteCount",
          "type": "uint256"
        }
      ],
      "stateMutability": "view",
      "type": "function"
    },
    {
      "inputs": [
        {
          "internalType": "string",
          "name": "ballotName",
          "type": "string"
        },
        {
          "internalType": "string",
          "name": "candidate",
          "type": "string"
        },
        {
          "internalType": "address",
          "name": "voter",
          "type": "address"
        }
      ],
      "name": "vote",
      "outputs": [],
      "stateMutability": "nonpayable",
      "type": "function"
    }
  ],
  "bytecode": "0x608060405234801561001057600080fd5b50611c14806100206000396000f3fe608060405234801561001057600080fd5b506004361061007d5760003560e01c8063618bde0a1161005b578063618bde0a14610101578063b474149514610131578063b8dd17a11461014f578063eb87c6dc1461016b5761007d565b806311bb51a4146100825780631694fa7d1461009e5780635c632b38146100ce575b600080fd5b61009c600480360381019061009791906111fc565b610189565b005b6100b860048036038101906100b39190611111565b6104be565b6040516100c59190611835565b60405180910390f35b6100e860048036038101906100e391906112bb565b610646565b6040516100f894939291906116e7565b60405180910390f35b61011b600480360381019061011691906112bb565b61072e565b6040516101289190611733565b60405180910390f35b610139610899565b6040516101469190611835565b60405180910390f35b6101696004803603810190610164919061117d565b6108a5565b005b610173610ca0565b6040516101809190611733565b60405180910390f35b8383116101cb576040517f08c379a00000000000000000000000000000000000000000000000000000000081526004016101c290611815565b60405180910390fd5b60006001816001815401808255809150500390600052602060002090505060008060016000805490506101fe91906119e5565b81548110610235577f4e487b7100000000000000000000000000000000000000000000000000000000600052603260045260246000fd5b9060005260206000209060070201905084816003018190555083816004018190555060005b83518110156103b657338260000160006101000a81548173ffffffffffffffffffffffffffffffffffffffff021916908373ffffffffffffffffffffffffffffffffffffffff160217905550868260010190805190602001906102be929190610ebf565b50816002018482815181106102fc577f4e487b7100000000000000000000000000000000000000000000000000000000600052603260045260246000fd5b602002602001015190806001815401808255809150506001900390600052602060002001600090919091909150908051906020019061033c929190610ebf565b5060008260050185838151811061037c577f4e487b7100000000000000000000000000000000000000000000000000000000600052603260045260246000fd5b602002602001015160405161039191906116b9565b90815260200160405180910390208190555080806103ae90611ac9565b91505061025a565b5060005b82518110156104b55760405180604001604052806000151581526020016001151581525082600601600085848151811061041d577f4e487b7100000000000000000000000000000000000000000000000000000000600052603260045260246000fd5b602002602001015173ffffffffffffffffffffffffffffffffffffffff1673ffffffffffffffffffffffffffffffffffffffff16815260200190815260200160002060008201518160000160006101000a81548160ff02191690831515021790555060208201518160000160016101000a81548160ff02191690831515021790555090505080806104ad90611ac9565b9150506103ba565b50505050505050565b6000806000805b6000805490508110156105fc57856040516020016104e391906116b9565b6040516020818303038152906040528051906020012060008281548110610533577f4e487b7100000000000000000000000000000000000000000000000000000000600052603260045260246000fd5b906000526020600020906007020160010160405160200161055491906116d0565b6040516020818303038152906040528051906020012014156105e957600081815481106105aa577f4e487b7100000000000000000000000000000000000000000000000000000000600052603260045260246000fd5b906000526020600020906007020192506001915082600501856040516105d091906116b9565b9081526020016040518091039020549350505050610640565b80806105f490611ac9565b9150506104c5565b508061063d576040517f08c379a000000000000000000000000000000000000000000000000000000000815260040161063490611795565b60405180910390fd5b50505b92915050565b6000818154811061065657600080fd5b90600052602060002090600702016000915090508060000160009054906101000a900473ffffffffffffffffffffffffffffffffffffffff169080600101805461069f90611a97565b80601f01602080910402602001604051908101604052809291908181526020018280546106cb90611a97565b80156107185780601f106106ed57610100808354040283529160200191610718565b820191906000526020600020905b8154815290600101906020018083116106fb57829003601f168201915b5050505050908060030154908060040154905084565b60606000805490508210610777576040517f08c379a000000000000000000000000000000000000000000000000000000000815260040161076e906117f5565b60405180910390fd5b600082815481106107b1577f4e487b7100000000000000000000000000000000000000000000000000000000600052603260045260246000fd5b9060005260206000209060070201600201805480602002602001604051908101604052809291908181526020016000905b8282101561088e57838290600052602060002001805461080190611a97565b80601f016020809104026020016040519081016040528092919081815260200182805461082d90611a97565b801561087a5780601f1061084f5761010080835404028352916020019161087a565b820191906000526020600020905b81548152906001019060200180831161085d57829003601f168201915b5050505050815260200190600101906107e2565b505050509050919050565b60008080549050905090565b6000806000905060005b600080549050811015610c5857856040516020016108cd91906116b9565b604051602081830303815290604052805190602001206000828154811061091d577f4e487b7100000000000000000000000000000000000000000000000000000000600052603260045260246000fd5b906000526020600020906007020160010160405160200161093e91906116d0565b604051602081830303815290604052805190602001201415610c455760008181548110610994577f4e487b7100000000000000000000000000000000000000000000000000000000600052603260045260246000fd5b9060005260206000209060070201925060019150816109e8576040517f08c379a00000000000000000000000000000000000000000000000000000000081526004016109df90611795565b60405180910390fd5b6109f28386610de6565b610a31576040517f08c379a0000000000000000000000000000000000000000000000000000000008152600401610a2890611775565b60405180910390fd5b8260060160008573ffffffffffffffffffffffffffffffffffffffff1673ffffffffffffffffffffffffffffffffffffffff16815260200190815260200160002060000160019054906101000a900460ff16610ac2576040517f08c379a0000000000000000000000000000000000000000000000000000000008152600401610ab990611755565b60405180910390fd5b8260060160008573ffffffffffffffffffffffffffffffffffffffff1673ffffffffffffffffffffffffffffffffffffffff16815260200190815260200160002060000160009054906101000a900460ff1615610b54576040517f08c379a0000000000000000000000000000000000000000000000000000000008152600401610b4b906117d5565b60405180910390fd5b82600301544210158015610b6c575082600401544211155b610bab576040517f08c379a0000000000000000000000000000000000000000000000000000000008152600401610ba2906117b5565b60405180910390fd5b60018360050186604051610bbf91906116b9565b90815260200160405180910390206000828254610bdc919061198f565b9250508190555060018360060160008673ffffffffffffffffffffffffffffffffffffffff1673ffffffffffffffffffffffffffffffffffffffff16815260200190815260200160002060000160006101000a81548160ff021916908315150217905550610c58565b8080610c5090611ac9565b9150506108af565b5080610c99576040517f08c379a0000000000000000000000000000000000000000000000000000000008152600401610c9090611795565b60405180910390fd5b5050505050565b60608060005b600080549050811015610dde5760008181548110610ced577f4e487b7100000000000000000000000000000000000000000000000000000000600052603260045260246000fd5b90600052602060002090600702016001018054610d0990611a97565b80601f0160208091040260200160405190810160405280929190818152602001828054610d3590611a97565b8015610d825780601f10610d5757610100808354040283529160200191610d82565b820191906000526020600020905b815481529060010190602001808311610d6557829003601f168201915b5050505050828281518110610dc0577f4e487b7100000000000000000000000000000000000000000000000000000000600052603260045260246000fd5b60200260200101819052508080610dd690611ac9565b915050610ca6565b508091505090565b600080600090505b8360020180549050811015610eb35782604051602001610e0e91906116b9565b60405160208183030381529060405280519060200120846002018281548110610e60577f4e487b7100000000000000000000000000000000000000000000000000000000600052603260045260246000fd5b90600052602060002001604051602001610e7a91906116d0565b604051602081830303815290604052805190602001201415610ea0576001915050610eb9565b8080610eab90611ac9565b915050610dee565b50600090505b92915050565b828054610ecb90611a97565b90600052602060002090601f016020900481019282610eed5760008555610f34565b82601f10610f0657805160ff1916838001178555610f34565b82800160010185558215610f34579182015b82811115610f33578251825591602001919060010190610f18565b5b509050610f419190610f45565b5090565b5b80821115610f5e576000816000905550600101610f46565b5090565b6000610f75610f7084611881565b611850565b90508083825260208201905082856020860282011115610f9457600080fd5b60005b85811015610fc45781610faa8882611069565b845260208401935060208301925050600181019050610f97565b5050509392505050565b6000610fe1610fdc846118ad565b611850565b9050808382526020820190508260005b85811015611021578135850161100788826110d2565b845260208401935060208301925050600181019050610ff1565b5050509392505050565b600061103e611039846118d9565b611850565b90508281526020810184848401111561105657600080fd5b611061848285611a55565b509392505050565b60008135905061107881611bb0565b92915050565b600082601f83011261108f57600080fd5b813561109f848260208601610f62565b91505092915050565b600082601f8301126110b957600080fd5b81356110c9848260208601610fce565b91505092915050565b600082601f8301126110e357600080fd5b81356110f384826020860161102b565b91505092915050565b60008135905061110b81611bc7565b92915050565b6000806040838503121561112457600080fd5b600083013567ffffffffffffffff81111561113e57600080fd5b61114a858286016110d2565b925050602083013567ffffffffffffffff81111561116757600080fd5b611173858286016110d2565b9150509250929050565b60008060006060848603121561119257600080fd5b600084013567ffffffffffffffff8111156111ac57600080fd5b6111b8868287016110d2565b935050602084013567ffffffffffffffff8111156111d557600080fd5b6111e1868287016110d2565b92505060406111f286828701611069565b9150509250925092565b600080600080600060a0868803121561121457600080fd5b600086013567ffffffffffffffff81111561122e57600080fd5b61123a888289016110d2565b955050602061124b888289016110fc565b945050604061125c888289016110fc565b935050606086013567ffffffffffffffff81111561127957600080fd5b611285888289016110a8565b925050608086013567ffffffffffffffff8111156112a257600080fd5b6112ae8882890161107e565b9150509295509295909350565b6000602082840312156112cd57600080fd5b60006112db848285016110fc565b91505092915050565b60006112f0838361137c565b905092915050565b61130181611a19565b82525050565b60006113128261192e565b61131c8185611951565b93508360208202850161132e85611909565b8060005b8581101561136a578484038952815161134b85826112e4565b945061135683611944565b925060208a01995050600181019050611332565b50829750879550505050505092915050565b600061138782611939565b6113918185611962565b93506113a1818560208601611a64565b6113aa81611b9f565b840191505092915050565b60006113c082611939565b6113ca8185611973565b93506113da818560208601611a64565b6113e381611b9f565b840191505092915050565b60006113f982611939565b6114038185611984565b9350611413818560208601611a64565b80840191505092915050565b6000815461142c81611a97565b6114368186611984565b94506001821660008114611451576001811461146257611495565b60ff19831686528186019350611495565b61146b85611919565b60005b8381101561148d5781548189015260018201915060208101905061146e565b838801955050505b50505092915050565b60006114ab601283611973565b91507f566f746572206e6f7420656c696769626c6500000000000000000000000000006000830152602082019050919050565b60006114eb601183611973565b91507f496e76616c69642063616e6469646174650000000000000000000000000000006000830152602082019050919050565b600061152b601083611973565b91507f42616c6c6f74206e6f7420666f756e64000000000000000000000000000000006000830152602082019050919050565b600061156b602a83611973565b91507f566f74696e6720706572696f6420686173206e6f742073746172746564206f7260008301527f2068617320656e646564000000000000000000000000000000000000000000006020830152604082019050919050565b60006115d1601383611973565b91507f566f74657220616c726561647920766f746564000000000000000000000000006000830152602082019050919050565b6000611611601483611973565b91507f496e76616c69642062616c6c6f7420696e6465780000000000000000000000006000830152602082019050919050565b6000611651602183611973565b91507f456e642074696d65206d7573742062652061667465722073746172742074696d60008301527f65000000000000000000000000000000000000000000000000000000000000006020830152604082019050919050565b6116b381611a4b565b82525050565b60006116c582846113ee565b915081905092915050565b60006116dc828461141f565b915081905092915050565b60006080820190506116fc60008301876112f8565b818103602083015261170e81866113b5565b905061171d60408301856116aa565b61172a60608301846116aa565b95945050505050565b6000602082019050818103600083015261174d8184611307565b905092915050565b6000602082019050818103600083015261176e8161149e565b9050919050565b6000602082019050818103600083015261178e816114de565b9050919050565b600060208201905081810360008301526117ae8161151e565b9050919050565b600060208201905081810360008301526117ce8161155e565b9050919050565b600060208201905081810360008301526117ee816115c4565b9050919050565b6000602082019050818103600083015261180e81611604565b9050919050565b6000602082019050818103600083015261182e81611644565b9050919050565b600060208201905061184a60008301846116aa565b92915050565b6000604051905081810181811067ffffffffffffffff8211171561187757611876611b70565b5b8060405250919050565b600067ffffffffffffffff82111561189c5761189b611b70565b5b602082029050602081019050919050565b600067ffffffffffffffff8211156118c8576118c7611b70565b5b602082029050602081019050919050565b600067ffffffffffffffff8211156118f4576118f3611b70565b5b601f19601f8301169050602081019050919050565b6000819050602082019050919050565b60008190508160005260206000209050919050565b600081519050919050565b600081519050919050565b6000602082019050919050565b600082825260208201905092915050565b600082825260208201905092915050565b600082825260208201905092915050565b600081905092915050565b600061199a82611a4b565b91506119a583611a4b565b9250827fffffffffffffffffffffffffffffffffffffffffffffffffffffffffffffffff038211156119da576119d9611b12565b5b828201905092915050565b60006119f082611a4b565b91506119fb83611a4b565b925082821015611a0e57611a0d611b12565b5b828203905092915050565b6000611a2482611a2b565b9050919050565b600073ffffffffffffffffffffffffffffffffffffffff82169050919050565b6000819050919050565b82818337600083830152505050565b60005b83811015611a82578082015181840152602081019050611a67565b83811115611a91576000848401525b50505050565b60006002820490506001821680611aaf57607f821691505b60208210811415611ac357611ac2611b41565b5b50919050565b6000611ad482611a4b565b91507fffffffffffffffffffffffffffffffffffffffffffffffffffffffffffffffff821415611b0757611b06611b12565b5b600182019050919050565b7f4e487b7100000000000000000000000000000000000000000000000000000000600052601160045260246000fd5b7f4e487b7100000000000000000000000000000000000000000000000000000000600052602260045260246000fd5b7f4e487b7100000000000000000000000000000000000000000000000000000000600052604160045260246000fd5b6000601f19601f8301169050919050565b611bb981611a19565b8114611bc457600080fd5b50565b611bd081611a4b565b8114611bdb57600080fd5b5056fea26469706673582212202214c4eda2a13c8dedaba7a2ef8a041f6388f47103c99086be7718c67bee0f7964736f6c63430008000033",
  "linkReferences": {},
  "deployedLinkReferences": {}
}