{
  "_format": "hh-sol-artifact-1",
  "contractName": "Voting",
  "sourceName": "contracts/Voting.sol",
  "abi": [
    {
      "inputs": [
        {
          "internalType": "string[]",
          "name": "candidatesList",
          "type": "string[]"
        },
        {
          "internalType": "address[]",
          "name": "votersList",
          "type": "address[]"
        }
      ],
      "stateMutability": "nonpayable",
      "type": "constructor"
    },
    {
      "inputs": [
        {
          "internalType": "string",
          "name": "candidate",
          "type": "string"
        }
      ],
      "name": "addNewCandidate",
      "outputs": [],
      "stateMutability": "nonpayable",
      "type": "function"
    },
    {
      "inputs": [
        {
          "internalType": "uint256",
          "name": "",
          "type": "uint256"
        }
      ],
      "name": "candidates",
      "outputs": [
        {
          "internalType": "string",
          "name": "",
          "type": "string"
        }
      ],
      "stateMutability": "view",
      "type": "function"
    },
    {
      "inputs": [],
      "name": "getCandidateList",
      "outputs": [
        {
          "internalType": "string[]",
          "name": "",
          "type": "string[]"
        }
      ],
      "stateMutability": "view",
      "type": "function"
    },
    {
      "inputs": [
        {
          "internalType": "string",
          "name": "candidate",
          "type": "string"
        }
      ],
      "name": "getVoteCount",
      "outputs": [
        {
          "internalType": "uint256",
          "name": "",
          "type": "uint256"
        }
      ],
      "stateMutability": "view",
      "type": "function"
    },
    {
      "inputs": [
        {
          "internalType": "string",
          "name": "candidate",
          "type": "string"
        }
      ],
      "name": "isValidCandidate",
      "outputs": [
        {
          "internalType": "bool",
          "name": "",
          "type": "bool"
        }
      ],
      "stateMutability": "view",
      "type": "function"
    },
    {
      "inputs": [
        {
          "internalType": "string",
          "name": "candidate",
          "type": "string"
        },
        {
          "internalType": "address",
          "name": "voter",
          "type": "address"
        }
      ],
      "name": "vote",
      "outputs": [],
      "stateMutability": "nonpayable",
      "type": "function"
    },
    {
      "inputs": [
        {
          "internalType": "address",
          "name": "",
          "type": "address"
        }
      ],
      "name": "voters",
      "outputs": [
        {
          "internalType": "bool",
          "name": "isVoted",
          "type": "bool"
        },
        {
          "internalType": "bool",
          "name": "isEligible",
          "type": "bool"
        }
      ],
      "stateMutability": "view",
      "type": "function"
    },
    {
      "inputs": [
        {
          "internalType": "string",
          "name": "",
          "type": "string"
        }
      ],
      "name": "votes",
      "outputs": [
        {
          "internalType": "uint256",
          "name": "",
          "type": "uint256"
        }
      ],
      "stateMutability": "view",
      "type": "function"
    }
  ],
  "bytecode": "0x60806040523480156200001157600080fd5b50604051620015da380380620015da8339818101604052810190620000379190620004b8565b60005b82518110156200014057600083828151811062000080577f4e487b7100000000000000000000000000000000000000000000000000000000600052603260045260246000fd5b6020026020010151908060018154018082558091505060019003906000526020600020016000909190919091509080519060200190620000c29291906200024b565b506000600284838151811062000101577f4e487b7100000000000000000000000000000000000000000000000000000000600052603260045260246000fd5b602002602001015160405162000118919062000562565b9081526020016040518091039020819055508080620001379062000700565b9150506200003a565b5060005b8151811015620002425760405180604001604052806000151581526020016001151581525060016000848481518110620001a7577f4e487b7100000000000000000000000000000000000000000000000000000000600052603260045260246000fd5b602002602001015173ffffffffffffffffffffffffffffffffffffffff1673ffffffffffffffffffffffffffffffffffffffff16815260200190815260200160002060008201518160000160006101000a81548160ff02191690831515021790555060208201518160000160016101000a81548160ff0219169083151502179055509050508080620002399062000700565b91505062000144565b505050620007f5565b8280546200025990620006ca565b90600052602060002090601f0160209004810192826200027d5760008555620002c9565b82601f106200029857805160ff1916838001178555620002c9565b82800160010185558215620002c9579182015b82811115620002c8578251825591602001919060010190620002ab565b5b509050620002d89190620002dc565b5090565b5b80821115620002f7576000816000905550600101620002dd565b5090565b6000620003126200030c84620005af565b6200057b565b905080838252602082019050828560208602820111156200033257600080fd5b60005b858110156200036657816200034b88826200041a565b84526020840193506020830192505060018101905062000335565b5050509392505050565b6000620003876200038184620005de565b6200057b565b9050808382526020820190508260005b85811015620003cb5781518501620003b088826200048b565b84526020840193506020830192505060018101905062000397565b5050509392505050565b6000620003ec620003e6846200060d565b6200057b565b9050828152602081018484840111156200040557600080fd5b6200041284828562000694565b509392505050565b6000815190506200042b81620007db565b92915050565b600082601f8301126200044357600080fd5b815162000455848260208601620002fb565b91505092915050565b600082601f8301126200047057600080fd5b81516200048284826020860162000370565b91505092915050565b600082601f8301126200049d57600080fd5b8151620004af848260208601620003d5565b91505092915050565b60008060408385031215620004cc57600080fd5b600083015167ffffffffffffffff811115620004e757600080fd5b620004f5858286016200045e565b925050602083015167ffffffffffffffff8111156200051357600080fd5b620005218582860162000431565b9150509250929050565b6000620005388262000640565b6200054481856200064b565b93506200055681856020860162000694565b80840191505092915050565b60006200057082846200052b565b915081905092915050565b6000604051905081810181811067ffffffffffffffff82111715620005a557620005a4620007ac565b5b8060405250919050565b600067ffffffffffffffff821115620005cd57620005cc620007ac565b5b602082029050602081019050919050565b600067ffffffffffffffff821115620005fc57620005fb620007ac565b5b602082029050602081019050919050565b600067ffffffffffffffff8211156200062b576200062a620007ac565b5b601f19601f8301169050602081019050919050565b600081519050919050565b600081905092915050565b600062000663826200066a565b9050919050565b600073ffffffffffffffffffffffffffffffffffffffff82169050919050565b6000819050919050565b60005b83811015620006b457808201518184015260208101905062000697565b83811115620006c4576000848401525b50505050565b60006002820490506001821680620006e357607f821691505b60208210811415620006fa57620006f96200077d565b5b50919050565b60006200070d826200068a565b91507fffffffffffffffffffffffffffffffffffffffffffffffffffffffffffffffff8214156200074357620007426200074e565b5b600182019050919050565b7f4e487b7100000000000000000000000000000000000000000000000000000000600052601160045260246000fd5b7f4e487b7100000000000000000000000000000000000000000000000000000000600052602260045260246000fd5b7f4e487b7100000000000000000000000000000000000000000000000000000000600052604160045260246000fd5b620007e68162000656565b8114620007f257600080fd5b50565b610dd580620008056000396000f3fe608060405234801561001057600080fd5b50600436106100885760003560e01c80635a436c061161005b5780635a436c0614610139578063a3ec138d14610155578063b99ef1fa14610186578063fdbc4006146101b657610088565b8063069953a71461008d5780632d307d60146100bd5780633477ee2e146100d957806351b9887d14610109575b600080fd5b6100a760048036038101906100a29190610739565b6101d4565b6040516100b49190610a76565b60405180910390f35b6100d760048036038101906100d29190610739565b61020e565b005b6100f360048036038101906100ee91906107ce565b610271565b6040516101009190610a54565b60405180910390f35b610123600480360381019061011e9190610739565b61031d565b6040516101309190610a10565b60405180910390f35b610153600480360381019061014e919061077a565b6103f1565b005b61016f600480360381019061016a9190610710565b610496565b60405161017d929190610a2b565b60405180910390f35b6101a0600480360381019061019b9190610739565b6104d4565b6040516101ad9190610a76565b60405180910390f35b6101be610502565b6040516101cb91906109ee565b60405180910390f35b60006101df8261031d565b6101e857600080fd5b6002826040516101f891906109c0565b9081526020016040518091039020549050919050565b6000819080600181540180825580915050600190039060005260206000200160009091909190915090805190602001906102499291906105db565b50600060028260405161025c91906109c0565b90815260200160405180910390208190555050565b6000818154811061028157600080fd5b90600052602060002001600091509050805461029c90610c58565b80601f01602080910402602001604051908101604052809291908181526020018280546102c890610c58565b80156103155780601f106102ea57610100808354040283529160200191610315565b820191906000526020600020905b8154815290600101906020018083116102f857829003601f168201915b505050505081565b600080600090505b6000805490508110156103e6578260405160200161034391906109c0565b6040516020818303038152906040528051906020012060008281548110610393577f4e487b7100000000000000000000000000000000000000000000000000000000600052603260045260246000fd5b906000526020600020016040516020016103ad91906109d7565b6040516020818303038152906040528051906020012014156103d35760019150506103ec565b80806103de90610c8a565b915050610325565b50600090505b919050565b6103fa8261031d565b61040357600080fd5b600160008273ffffffffffffffffffffffffffffffffffffffff1673ffffffffffffffffffffffffffffffffffffffff16815260200190815260200160002060000160019054906101000a900460ff1661045c57600080fd5b600160028360405161046e91906109c0565b9081526020016040518091039020600082825461048b9190610b78565b925050819055505050565b60016020528060005260406000206000915090508060000160009054906101000a900460ff16908060000160019054906101000a900460ff16905082565b6002818051602081018201805184825260208301602085012081835280955050505050506000915090505481565b60606000805480602002602001604051908101604052809291908181526020016000905b828210156105d257838290600052602060002001805461054590610c58565b80601f016020809104026020016040519081016040528092919081815260200182805461057190610c58565b80156105be5780601f10610593576101008083540402835291602001916105be565b820191906000526020600020905b8154815290600101906020018083116105a157829003601f168201915b505050505081526020019060010190610526565b50505050905090565b8280546105e790610c58565b90600052602060002090601f0160209004810192826106095760008555610650565b82601f1061062257805160ff1916838001178555610650565b82800160010185558215610650579182015b8281111561064f578251825591602001919060010190610634565b5b50905061065d9190610661565b5090565b5b8082111561067a576000816000905550600101610662565b5090565b600061069161068c84610ac2565b610a91565b9050828152602081018484840111156106a957600080fd5b6106b4848285610c16565b509392505050565b6000813590506106cb81610d71565b92915050565b600082601f8301126106e257600080fd5b81356106f284826020860161067e565b91505092915050565b60008135905061070a81610d88565b92915050565b60006020828403121561072257600080fd5b6000610730848285016106bc565b91505092915050565b60006020828403121561074b57600080fd5b600082013567ffffffffffffffff81111561076557600080fd5b610771848285016106d1565b91505092915050565b6000806040838503121561078d57600080fd5b600083013567ffffffffffffffff8111156107a757600080fd5b6107b3858286016106d1565b92505060206107c4858286016106bc565b9150509250929050565b6000602082840312156107e057600080fd5b60006107ee848285016106fb565b91505092915050565b6000610803838361088f565b905092915050565b600061081682610b17565b6108208185610b3a565b93508360208202850161083285610af2565b8060005b8581101561086e578484038952815161084f85826107f7565b945061085a83610b2d565b925060208a01995050600181019050610836565b50829750879550505050505092915050565b61088981610be0565b82525050565b600061089a82610b22565b6108a48185610b4b565b93506108b4818560208601610c25565b6108bd81610d60565b840191505092915050565b60006108d382610b22565b6108dd8185610b5c565b93506108ed818560208601610c25565b6108f681610d60565b840191505092915050565b600061090c82610b22565b6109168185610b6d565b9350610926818560208601610c25565b80840191505092915050565b6000815461093f81610c58565b6109498186610b6d565b945060018216600081146109645760018114610975576109a8565b60ff198316865281860193506109a8565b61097e85610b02565b60005b838110156109a057815481890152600182019150602081019050610981565b838801955050505b50505092915050565b6109ba81610c0c565b82525050565b60006109cc8284610901565b915081905092915050565b60006109e38284610932565b915081905092915050565b60006020820190508181036000830152610a08818461080b565b905092915050565b6000602082019050610a256000830184610880565b92915050565b6000604082019050610a406000830185610880565b610a4d6020830184610880565b9392505050565b60006020820190508181036000830152610a6e81846108c8565b905092915050565b6000602082019050610a8b60008301846109b1565b92915050565b6000604051905081810181811067ffffffffffffffff82111715610ab857610ab7610d31565b5b8060405250919050565b600067ffffffffffffffff821115610add57610adc610d31565b5b601f19601f8301169050602081019050919050565b6000819050602082019050919050565b60008190508160005260206000209050919050565b600081519050919050565b600081519050919050565b6000602082019050919050565b600082825260208201905092915050565b600082825260208201905092915050565b600082825260208201905092915050565b600081905092915050565b6000610b8382610c0c565b9150610b8e83610c0c565b9250827fffffffffffffffffffffffffffffffffffffffffffffffffffffffffffffffff03821115610bc357610bc2610cd3565b5b828201905092915050565b6000610bd982610bec565b9050919050565b60008115159050919050565b600073ffffffffffffffffffffffffffffffffffffffff82169050919050565b6000819050919050565b82818337600083830152505050565b60005b83811015610c43578082015181840152602081019050610c28565b83811115610c52576000848401525b50505050565b60006002820490506001821680610c7057607f821691505b60208210811415610c8457610c83610d02565b5b50919050565b6000610c9582610c0c565b91507fffffffffffffffffffffffffffffffffffffffffffffffffffffffffffffffff821415610cc857610cc7610cd3565b5b600182019050919050565b7f4e487b7100000000000000000000000000000000000000000000000000000000600052601160045260246000fd5b7f4e487b7100000000000000000000000000000000000000000000000000000000600052602260045260246000fd5b7f4e487b7100000000000000000000000000000000000000000000000000000000600052604160045260246000fd5b6000601f19601f8301169050919050565b610d7a81610bce565b8114610d8557600080fd5b50565b610d9181610c0c565b8114610d9c57600080fd5b5056fea2646970667358221220572ad8ae37eff0b6519120b20b411081ed5c76267b71a6402436aaa9cecbe4e164736f6c63430008000033",
  "linkReferences": {},
  "deployedLinkReferences": {}
}