{
  "_format": "hh-sol-artifact-1",
  "contractName": "Voting",
  "sourceName": "contracts/Voting.sol",
  "abi": [
    {
      "inputs": [
        {
          "internalType": "string[]",
          "name": "candidatesList",
          "type": "string[]"
        },
        {
          "internalType": "address[]",
          "name": "votersList",
          "type": "address[]"
        }
      ],
      "stateMutability": "nonpayable",
      "type": "constructor"
    },
    {
      "inputs": [
        {
          "internalType": "string",
          "name": "candidate",
          "type": "string"
        }
      ],
      "name": "addNewCandidate",
      "outputs": [],
      "stateMutability": "nonpayable",
      "type": "function"
    },
    {
      "inputs": [
        {
          "internalType": "uint256",
          "name": "",
          "type": "uint256"
        }
      ],
      "name": "candidates",
      "outputs": [
        {
          "internalType": "string",
          "name": "",
          "type": "string"
        }
      ],
      "stateMutability": "view",
      "type": "function"
    },
    {
      "inputs": [],
      "name": "getCandidateList",
      "outputs": [
        {
          "internalType": "string[]",
          "name": "",
          "type": "string[]"
        }
      ],
      "stateMutability": "view",
      "type": "function"
    },
    {
      "inputs": [
        {
          "internalType": "string",
          "name": "candidate",
          "type": "string"
        }
      ],
      "name": "getVoteCount",
      "outputs": [
        {
          "internalType": "uint256",
          "name": "",
          "type": "uint256"
        }
      ],
      "stateMutability": "view",
      "type": "function"
    },
    {
      "inputs": [
        {
          "internalType": "string",
          "name": "candidate",
          "type": "string"
        }
      ],
      "name": "isValidCandidate",
      "outputs": [
        {
          "internalType": "bool",
          "name": "",
          "type": "bool"
        }
      ],
      "stateMutability": "view",
      "type": "function"
    },
    {
      "inputs": [
        {
          "internalType": "string",
          "name": "candidate",
          "type": "string"
        },
        {
          "internalType": "address",
          "name": "voter",
          "type": "address"
        }
      ],
      "name": "vote",
      "outputs": [],
      "stateMutability": "nonpayable",
      "type": "function"
    },
    {
      "inputs": [
        {
          "internalType": "address",
          "name": "",
          "type": "address"
        }
      ],
      "name": "voters",
      "outputs": [
        {
          "internalType": "bool",
          "name": "isVoted",
          "type": "bool"
        },
        {
          "internalType": "bool",
          "name": "isEligible",
          "type": "bool"
        }
      ],
      "stateMutability": "view",
      "type": "function"
    },
    {
      "inputs": [
        {
          "internalType": "string",
          "name": "",
          "type": "string"
        }
      ],
      "name": "votes",
      "outputs": [
        {
          "internalType": "uint256",
          "name": "",
          "type": "uint256"
        }
      ],
      "stateMutability": "view",
      "type": "function"
    }
  ],
  "bytecode": "0x60806040523480156200001157600080fd5b5060405162001694380380620016948339818101604052810190620000379190620004b8565b60005b82518110156200014057600083828151811062000080577f4e487b7100000000000000000000000000000000000000000000000000000000600052603260045260246000fd5b6020026020010151908060018154018082558091505060019003906000526020600020016000909190919091509080519060200190620000c29291906200024b565b506000600284838151811062000101577f4e487b7100000000000000000000000000000000000000000000000000000000600052603260045260246000fd5b602002602001015160405162000118919062000562565b9081526020016040518091039020819055508080620001379062000700565b9150506200003a565b5060005b8151811015620002425760405180604001604052806000151581526020016001151581525060016000848481518110620001a7577f4e487b7100000000000000000000000000000000000000000000000000000000600052603260045260246000fd5b602002602001015173ffffffffffffffffffffffffffffffffffffffff1673ffffffffffffffffffffffffffffffffffffffff16815260200190815260200160002060008201518160000160006101000a81548160ff02191690831515021790555060208201518160000160016101000a81548160ff0219169083151502179055509050508080620002399062000700565b91505062000144565b505050620007f5565b8280546200025990620006ca565b90600052602060002090601f0160209004810192826200027d5760008555620002c9565b82601f106200029857805160ff1916838001178555620002c9565b82800160010185558215620002c9579182015b82811115620002c8578251825591602001919060010190620002ab565b5b509050620002d89190620002dc565b5090565b5b80821115620002f7576000816000905550600101620002dd565b5090565b6000620003126200030c84620005af565b6200057b565b905080838252602082019050828560208602820111156200033257600080fd5b60005b858110156200036657816200034b88826200041a565b84526020840193506020830192505060018101905062000335565b5050509392505050565b6000620003876200038184620005de565b6200057b565b9050808382526020820190508260005b85811015620003cb5781518501620003b088826200048b565b84526020840193506020830192505060018101905062000397565b5050509392505050565b6000620003ec620003e6846200060d565b6200057b565b9050828152602081018484840111156200040557600080fd5b6200041284828562000694565b509392505050565b6000815190506200042b81620007db565b92915050565b600082601f8301126200044357600080fd5b815162000455848260208601620002fb565b91505092915050565b600082601f8301126200047057600080fd5b81516200048284826020860162000370565b91505092915050565b600082601f8301126200049d57600080fd5b8151620004af848260208601620003d5565b91505092915050565b60008060408385031215620004cc57600080fd5b600083015167ffffffffffffffff811115620004e757600080fd5b620004f5858286016200045e565b925050602083015167ffffffffffffffff8111156200051357600080fd5b620005218582860162000431565b9150509250929050565b6000620005388262000640565b6200054481856200064b565b93506200055681856020860162000694565b80840191505092915050565b60006200057082846200052b565b915081905092915050565b6000604051905081810181811067ffffffffffffffff82111715620005a557620005a4620007ac565b5b8060405250919050565b600067ffffffffffffffff821115620005cd57620005cc620007ac565b5b602082029050602081019050919050565b600067ffffffffffffffff821115620005fc57620005fb620007ac565b5b602082029050602081019050919050565b600067ffffffffffffffff8211156200062b576200062a620007ac565b5b601f19601f8301169050602081019050919050565b600081519050919050565b600081905092915050565b600062000663826200066a565b9050919050565b600073ffffffffffffffffffffffffffffffffffffffff82169050919050565b6000819050919050565b60005b83811015620006b457808201518184015260208101905062000697565b83811115620006c4576000848401525b50505050565b60006002820490506001821680620006e357607f821691505b60208210811415620006fa57620006f96200077d565b5b50919050565b60006200070d826200068a565b91507fffffffffffffffffffffffffffffffffffffffffffffffffffffffffffffffff8214156200074357620007426200074e565b5b600182019050919050565b7f4e487b7100000000000000000000000000000000000000000000000000000000600052601160045260246000fd5b7f4e487b7100000000000000000000000000000000000000000000000000000000600052602260045260246000fd5b7f4e487b7100000000000000000000000000000000000000000000000000000000600052604160045260246000fd5b620007e68162000656565b8114620007f257600080fd5b50565b610e8f80620008056000396000f3fe608060405234801561001057600080fd5b50600436106100885760003560e01c80635a436c061161005b5780635a436c0614610139578063a3ec138d14610155578063b99ef1fa14610186578063fdbc4006146101b657610088565b8063069953a71461008d5780632d307d60146100bd5780633477ee2e146100d957806351b9887d14610109575b600080fd5b6100a760048036038101906100a291906107f3565b6101d4565b6040516100b49190610b30565b60405180910390f35b6100d760048036038101906100d291906107f3565b61020e565b005b6100f360048036038101906100ee9190610888565b610271565b6040516101009190610b0e565b60405180910390f35b610123600480360381019061011e91906107f3565b61031d565b6040516101309190610aca565b60405180910390f35b610153600480360381019061014e9190610834565b6103f1565b005b61016f600480360381019061016a91906107ca565b610550565b60405161017d929190610ae5565b60405180910390f35b6101a0600480360381019061019b91906107f3565b61058e565b6040516101ad9190610b30565b60405180910390f35b6101be6105bc565b6040516101cb9190610aa8565b60405180910390f35b60006101df8261031d565b6101e857600080fd5b6002826040516101f89190610a7a565b9081526020016040518091039020549050919050565b600081908060018154018082558091505060019003906000526020600020016000909190919091509080519060200190610249929190610695565b50600060028260405161025c9190610a7a565b90815260200160405180910390208190555050565b6000818154811061028157600080fd5b90600052602060002001600091509050805461029c90610d12565b80601f01602080910402602001604051908101604052809291908181526020018280546102c890610d12565b80156103155780601f106102ea57610100808354040283529160200191610315565b820191906000526020600020905b8154815290600101906020018083116102f857829003601f168201915b505050505081565b600080600090505b6000805490508110156103e657826040516020016103439190610a7a565b6040516020818303038152906040528051906020012060008281548110610393577f4e487b7100000000000000000000000000000000000000000000000000000000600052603260045260246000fd5b906000526020600020016040516020016103ad9190610a91565b6040516020818303038152906040528051906020012014156103d35760019150506103ec565b80806103de90610d44565b915050610325565b50600090505b919050565b6103fa8261031d565b61040357600080fd5b600160008273ffffffffffffffffffffffffffffffffffffffff1673ffffffffffffffffffffffffffffffffffffffff16815260200190815260200160002060000160019054906101000a900460ff1661045c57600080fd5b60001515600160008373ffffffffffffffffffffffffffffffffffffffff1673ffffffffffffffffffffffffffffffffffffffff16815260200190815260200160002060000160009054906101000a900460ff161515146104bc57600080fd5b60016002836040516104ce9190610a7a565b908152602001604051809103902060008282546104eb9190610c32565b9250508190555060018060008373ffffffffffffffffffffffffffffffffffffffff1673ffffffffffffffffffffffffffffffffffffffff16815260200190815260200160002060000160006101000a81548160ff0219169083151502179055505050565b60016020528060005260406000206000915090508060000160009054906101000a900460ff16908060000160019054906101000a900460ff16905082565b6002818051602081018201805184825260208301602085012081835280955050505050506000915090505481565b60606000805480602002602001604051908101604052809291908181526020016000905b8282101561068c5783829060005260206000200180546105ff90610d12565b80601f016020809104026020016040519081016040528092919081815260200182805461062b90610d12565b80156106785780601f1061064d57610100808354040283529160200191610678565b820191906000526020600020905b81548152906001019060200180831161065b57829003601f168201915b5050505050815260200190600101906105e0565b50505050905090565b8280546106a190610d12565b90600052602060002090601f0160209004810192826106c3576000855561070a565b82601f106106dc57805160ff191683800117855561070a565b8280016001018555821561070a579182015b828111156107095782518255916020019190600101906106ee565b5b509050610717919061071b565b5090565b5b8082111561073457600081600090555060010161071c565b5090565b600061074b61074684610b7c565b610b4b565b90508281526020810184848401111561076357600080fd5b61076e848285610cd0565b509392505050565b60008135905061078581610e2b565b92915050565b600082601f83011261079c57600080fd5b81356107ac848260208601610738565b91505092915050565b6000813590506107c481610e42565b92915050565b6000602082840312156107dc57600080fd5b60006107ea84828501610776565b91505092915050565b60006020828403121561080557600080fd5b600082013567ffffffffffffffff81111561081f57600080fd5b61082b8482850161078b565b91505092915050565b6000806040838503121561084757600080fd5b600083013567ffffffffffffffff81111561086157600080fd5b61086d8582860161078b565b925050602061087e85828601610776565b9150509250929050565b60006020828403121561089a57600080fd5b60006108a8848285016107b5565b91505092915050565b60006108bd8383610949565b905092915050565b60006108d082610bd1565b6108da8185610bf4565b9350836020820285016108ec85610bac565b8060005b85811015610928578484038952815161090985826108b1565b945061091483610be7565b925060208a019950506001810190506108f0565b50829750879550505050505092915050565b61094381610c9a565b82525050565b600061095482610bdc565b61095e8185610c05565b935061096e818560208601610cdf565b61097781610e1a565b840191505092915050565b600061098d82610bdc565b6109978185610c16565b93506109a7818560208601610cdf565b6109b081610e1a565b840191505092915050565b60006109c682610bdc565b6109d08185610c27565b93506109e0818560208601610cdf565b80840191505092915050565b600081546109f981610d12565b610a038186610c27565b94506001821660008114610a1e5760018114610a2f57610a62565b60ff19831686528186019350610a62565b610a3885610bbc565b60005b83811015610a5a57815481890152600182019150602081019050610a3b565b838801955050505b50505092915050565b610a7481610cc6565b82525050565b6000610a8682846109bb565b915081905092915050565b6000610a9d82846109ec565b915081905092915050565b60006020820190508181036000830152610ac281846108c5565b905092915050565b6000602082019050610adf600083018461093a565b92915050565b6000604082019050610afa600083018561093a565b610b07602083018461093a565b9392505050565b60006020820190508181036000830152610b288184610982565b905092915050565b6000602082019050610b456000830184610a6b565b92915050565b6000604051905081810181811067ffffffffffffffff82111715610b7257610b71610deb565b5b8060405250919050565b600067ffffffffffffffff821115610b9757610b96610deb565b5b601f19601f8301169050602081019050919050565b6000819050602082019050919050565b60008190508160005260206000209050919050565b600081519050919050565b600081519050919050565b6000602082019050919050565b600082825260208201905092915050565b600082825260208201905092915050565b600082825260208201905092915050565b600081905092915050565b6000610c3d82610cc6565b9150610c4883610cc6565b9250827fffffffffffffffffffffffffffffffffffffffffffffffffffffffffffffffff03821115610c7d57610c7c610d8d565b5b828201905092915050565b6000610c9382610ca6565b9050919050565b60008115159050919050565b600073ffffffffffffffffffffffffffffffffffffffff82169050919050565b6000819050919050565b82818337600083830152505050565b60005b83811015610cfd578082015181840152602081019050610ce2565b83811115610d0c576000848401525b50505050565b60006002820490506001821680610d2a57607f821691505b60208210811415610d3e57610d3d610dbc565b5b50919050565b6000610d4f82610cc6565b91507fffffffffffffffffffffffffffffffffffffffffffffffffffffffffffffffff821415610d8257610d81610d8d565b5b600182019050919050565b7f4e487b7100000000000000000000000000000000000000000000000000000000600052601160045260246000fd5b7f4e487b7100000000000000000000000000000000000000000000000000000000600052602260045260246000fd5b7f4e487b7100000000000000000000000000000000000000000000000000000000600052604160045260246000fd5b6000601f19601f8301169050919050565b610e3481610c88565b8114610e3f57600080fd5b50565b610e4b81610cc6565b8114610e5657600080fd5b5056fea2646970667358221220fec148535f3ff1d8039db65622a777deab8ff41ea76bfd10df66806c3697364a64736f6c63430008000033",
  "linkReferences": {},
  "deployedLinkReferences": {}
}